{
  "_format": "hh-sol-artifact-1",
  "contractName": "Vault",
  "sourceName": "contracts/Vault.sol",
  "abi": [
    {
      "inputs": [
        {
          "internalType": "address",
          "name": "_usdtAddress",
          "type": "address"
        },
        {
          "internalType": "address",
          "name": "_initialOwner",
          "type": "address"
        }
      ],
      "stateMutability": "nonpayable",
      "type": "constructor"
    },
    {
      "inputs": [
        {
          "internalType": "address",
          "name": "owner",
          "type": "address"
        }
      ],
      "name": "OwnableInvalidOwner",
      "type": "error"
    },
    {
      "inputs": [
        {
          "internalType": "address",
          "name": "account",
          "type": "address"
        }
      ],
      "name": "OwnableUnauthorizedAccount",
      "type": "error"
    },
    {
      "anonymous": false,
      "inputs": [
        {
          "indexed": true,
          "internalType": "address",
          "name": "user",
          "type": "address"
        },
        {
          "indexed": false,
          "internalType": "uint256",
          "name": "amount",
          "type": "uint256"
        }
      ],
      "name": "Deposit",
      "type": "event"
    },
    {
      "anonymous": false,
      "inputs": [
        {
          "indexed": true,
          "internalType": "address",
          "name": "previousOwner",
          "type": "address"
        },
        {
          "indexed": true,
          "internalType": "address",
          "name": "newOwner",
          "type": "address"
        }
      ],
      "name": "OwnershipTransferred",
      "type": "event"
    },
    {
      "anonymous": false,
      "inputs": [
        {
          "indexed": true,
          "internalType": "address",
          "name": "recipient",
          "type": "address"
        },
        {
          "indexed": false,
          "internalType": "uint256",
          "name": "amount",
          "type": "uint256"
        }
      ],
      "name": "Withdrawal",
      "type": "event"
    },
    {
      "inputs": [
        {
          "internalType": "uint256",
          "name": "_amount",
          "type": "uint256"
        }
      ],
      "name": "deposit",
      "outputs": [],
      "stateMutability": "nonpayable",
      "type": "function"
    },
    {
      "inputs": [],
      "name": "getBalance",
      "outputs": [
        {
          "internalType": "uint256",
          "name": "",
          "type": "uint256"
        }
      ],
      "stateMutability": "view",
      "type": "function"
    },
    {
      "inputs": [],
      "name": "owner",
      "outputs": [
        {
          "internalType": "address",
          "name": "",
          "type": "address"
        }
      ],
      "stateMutability": "view",
      "type": "function"
    },
    {
      "inputs": [],
      "name": "renounceOwnership",
      "outputs": [],
      "stateMutability": "nonpayable",
      "type": "function"
    },
    {
      "inputs": [
        {
          "internalType": "address",
          "name": "newOwner",
          "type": "address"
        }
      ],
      "name": "transferOwnership",
      "outputs": [],
      "stateMutability": "nonpayable",
      "type": "function"
    },
    {
      "inputs": [],
      "name": "usdt",
      "outputs": [
        {
          "internalType": "contract IERC20",
          "name": "",
          "type": "address"
        }
      ],
      "stateMutability": "view",
      "type": "function"
    },
    {
      "inputs": [
        {
          "internalType": "address",
          "name": "_recipient",
          "type": "address"
        },
        {
          "internalType": "uint256",
          "name": "_amount",
          "type": "uint256"
        }
      ],
      "name": "withdraw",
      "outputs": [],
      "stateMutability": "nonpayable",
      "type": "function"
    }
  ],
  "bytecode": "0x60a06040523480156200001157600080fd5b50604051620011b7380380620011b7833981810160405281019062000037919062000229565b80600073ffffffffffffffffffffffffffffffffffffffff168173ffffffffffffffffffffffffffffffffffffffff1603620000ad5760006040517f1e4fbdf7000000000000000000000000000000000000000000000000000000008152600401620000a4919062000281565b60405180910390fd5b620000be81620000fb60201b60201c565b508173ffffffffffffffffffffffffffffffffffffffff1660808173ffffffffffffffffffffffffffffffffffffffff168152505050506200029e565b60008060009054906101000a900473ffffffffffffffffffffffffffffffffffffffff169050816000806101000a81548173ffffffffffffffffffffffffffffffffffffffff021916908373ffffffffffffffffffffffffffffffffffffffff1602179055508173ffffffffffffffffffffffffffffffffffffffff168173ffffffffffffffffffffffffffffffffffffffff167f8be0079c531659141344cd1fd0a4f28419497f9722a3daafe3b4186f6b6457e060405160405180910390a35050565b600080fd5b600073ffffffffffffffffffffffffffffffffffffffff82169050919050565b6000620001f182620001c4565b9050919050565b6200020381620001e4565b81146200020f57600080fd5b50565b6000815190506200022381620001f8565b92915050565b60008060408385031215620002435762000242620001bf565b5b6000620002538582860162000212565b9250506020620002668582860162000212565b9150509250929050565b6200027b81620001e4565b82525050565b600060208201905062000298600083018462000270565b92915050565b608051610eda620002dd6000396000818161013e015281816101dd01528181610283015281816103660152818161056e015261064f0152610eda6000f3fe608060405234801561001057600080fd5b506004361061007d5760003560e01c80638da5cb5b1161005b5780638da5cb5b146100c8578063b6b55f25146100e6578063f2fde38b14610102578063f3fef3a31461011e5761007d565b806312065fe0146100825780632f48ab7d146100a0578063715018a6146100be575b600080fd5b61008a61013a565b60405161009791906108ed565b60405180910390f35b6100a86101db565b6040516100b59190610987565b60405180910390f35b6100c66101ff565b005b6100d0610213565b6040516100dd91906109c3565b60405180910390f35b61010060048036038101906100fb9190610a0f565b61023c565b005b61011c60048036038101906101179190610a68565b610499565b005b61013860048036038101906101339190610a95565b61051f565b005b60007f000000000000000000000000000000000000000000000000000000000000000073ffffffffffffffffffffffffffffffffffffffff166370a08231306040518263ffffffff1660e01b815260040161019591906109c3565b602060405180830381865afa1580156101b2573d6000803e3d6000fd5b505050506040513d601f19601f820116820180604052508101906101d69190610aea565b905090565b7f000000000000000000000000000000000000000000000000000000000000000081565b610207610781565b6102116000610808565b565b60008060009054906101000a900473ffffffffffffffffffffffffffffffffffffffff16905090565b6000811161027f576040517f08c379a000000000000000000000000000000000000000000000000000000000815260040161027690610b9a565b60405180910390fd5b60007f000000000000000000000000000000000000000000000000000000000000000073ffffffffffffffffffffffffffffffffffffffff1663dd62ed3e33306040518363ffffffff1660e01b81526004016102dc929190610bba565b602060405180830381865afa1580156102f9573d6000803e3d6000fd5b505050506040513d601f19601f8201168201806040525081019061031d9190610aea565b905081811015610362576040517f08c379a000000000000000000000000000000000000000000000000000000000815260040161035990610c2f565b60405180910390fd5b60007f000000000000000000000000000000000000000000000000000000000000000073ffffffffffffffffffffffffffffffffffffffff166323b872dd3330866040518463ffffffff1660e01b81526004016103c193929190610c4f565b6020604051808303816000875af11580156103e0573d6000803e3d6000fd5b505050506040513d601f19601f820116820180604052508101906104049190610cbe565b905080610446576040517f08c379a000000000000000000000000000000000000000000000000000000000815260040161043d90610d37565b60405180910390fd5b3373ffffffffffffffffffffffffffffffffffffffff167fe1fffcc4923d04b559f4d29a8bfc6cda04eb5b0d3c460751c2402c5c5cc9109c8460405161048c91906108ed565b60405180910390a2505050565b6104a1610781565b600073ffffffffffffffffffffffffffffffffffffffff168173ffffffffffffffffffffffffffffffffffffffff16036105135760006040517f1e4fbdf700000000000000000000000000000000000000000000000000000000815260040161050a91906109c3565b60405180910390fd5b61051c81610808565b50565b610527610781565b6000811161056a576040517f08c379a000000000000000000000000000000000000000000000000000000000815260040161056190610dc9565b60405180910390fd5b60007f000000000000000000000000000000000000000000000000000000000000000073ffffffffffffffffffffffffffffffffffffffff166370a08231306040518263ffffffff1660e01b81526004016105c591906109c3565b602060405180830381865afa1580156105e2573d6000803e3d6000fd5b505050506040513d601f19601f820116820180604052508101906106069190610aea565b90508181101561064b576040517f08c379a000000000000000000000000000000000000000000000000000000000815260040161064290610e5b565b60405180910390fd5b60007f000000000000000000000000000000000000000000000000000000000000000073ffffffffffffffffffffffffffffffffffffffff1663a9059cbb85856040518363ffffffff1660e01b81526004016106a8929190610e7b565b6020604051808303816000875af11580156106c7573d6000803e3d6000fd5b505050506040513d601f19601f820116820180604052508101906106eb9190610cbe565b90508061072d576040517f08c379a000000000000000000000000000000000000000000000000000000000815260040161072490610d37565b60405180910390fd5b8373ffffffffffffffffffffffffffffffffffffffff167f7fcf532c15f0a6db0bd6d0e038bea71d30d808c7d98cb3bf7268a95bf5081b658460405161077391906108ed565b60405180910390a250505050565b6107896108cc565b73ffffffffffffffffffffffffffffffffffffffff166107a7610213565b73ffffffffffffffffffffffffffffffffffffffff1614610806576107ca6108cc565b6040517f118cdaa70000000000000000000000000000000000000000000000000000000081526004016107fd91906109c3565b60405180910390fd5b565b60008060009054906101000a900473ffffffffffffffffffffffffffffffffffffffff169050816000806101000a81548173ffffffffffffffffffffffffffffffffffffffff021916908373ffffffffffffffffffffffffffffffffffffffff1602179055508173ffffffffffffffffffffffffffffffffffffffff168173ffffffffffffffffffffffffffffffffffffffff167f8be0079c531659141344cd1fd0a4f28419497f9722a3daafe3b4186f6b6457e060405160405180910390a35050565b600033905090565b6000819050919050565b6108e7816108d4565b82525050565b600060208201905061090260008301846108de565b92915050565b600073ffffffffffffffffffffffffffffffffffffffff82169050919050565b6000819050919050565b600061094d61094861094384610908565b610928565b610908565b9050919050565b600061095f82610932565b9050919050565b600061097182610954565b9050919050565b61098181610966565b82525050565b600060208201905061099c6000830184610978565b92915050565b60006109ad82610908565b9050919050565b6109bd816109a2565b82525050565b60006020820190506109d860008301846109b4565b92915050565b600080fd5b6109ec816108d4565b81146109f757600080fd5b50565b600081359050610a09816109e3565b92915050565b600060208284031215610a2557610a246109de565b5b6000610a33848285016109fa565b91505092915050565b610a45816109a2565b8114610a5057600080fd5b50565b600081359050610a6281610a3c565b92915050565b600060208284031215610a7e57610a7d6109de565b5b6000610a8c84828501610a53565b91505092915050565b60008060408385031215610aac57610aab6109de565b5b6000610aba85828601610a53565b9250506020610acb858286016109fa565b9150509250929050565b600081519050610ae4816109e3565b92915050565b600060208284031215610b0057610aff6109de565b5b6000610b0e84828501610ad5565b91505092915050565b600082825260208201905092915050565b7f5661756c743a204465706f73697420616d6f756e74206d75737420626520677260008201527f6561746572207468616e207a65726f0000000000000000000000000000000000602082015250565b6000610b84602f83610b17565b9150610b8f82610b28565b604082019050919050565b60006020820190508181036000830152610bb381610b77565b9050919050565b6000604082019050610bcf60008301856109b4565b610bdc60208301846109b4565b9392505050565b7f5661756c743a20436865636b2074686520746f6b656e20616c6c6f77616e6365600082015250565b6000610c19602083610b17565b9150610c2482610be3565b602082019050919050565b60006020820190508181036000830152610c4881610c0c565b9050919050565b6000606082019050610c6460008301866109b4565b610c7160208301856109b4565b610c7e60408301846108de565b949350505050565b60008115159050919050565b610c9b81610c86565b8114610ca657600080fd5b50565b600081519050610cb881610c92565b92915050565b600060208284031215610cd457610cd36109de565b5b6000610ce284828501610ca9565b91505092915050565b7f5661756c743a2055534454207472616e73666572206661696c65640000000000600082015250565b6000610d21601b83610b17565b9150610d2c82610ceb565b602082019050919050565b60006020820190508181036000830152610d5081610d14565b9050919050565b7f5661756c743a20576974686472617720616d6f756e74206d757374206265206760008201527f726561746572207468616e207a65726f00000000000000000000000000000000602082015250565b6000610db3603083610b17565b9150610dbe82610d57565b604082019050919050565b60006020820190508181036000830152610de281610da6565b9050919050565b7f5661756c743a20496e73756666696369656e742062616c616e636520696e207460008201527f6865207661756c74000000000000000000000000000000000000000000000000602082015250565b6000610e45602883610b17565b9150610e5082610de9565b604082019050919050565b60006020820190508181036000830152610e7481610e38565b9050919050565b6000604082019050610e9060008301856109b4565b610e9d60208301846108de565b939250505056fea2646970667358221220ed1d731bd41d81d3efa159a5fc1ba95a15f1ce51bbe57ceaf515759a5e59a14f64736f6c63430008180033",
  "linkReferences": {},
  "deployedLinkReferences": {}
}